:020000040007F3
:1040000098980020DD430700E5430700E7430700D9
:10401000E9430700EB430700ED4307000000000001
:10402000000000000000000000000000C94307007D
:10403000F143070000000000F3430700F5430700C9
:10404000F7430700F7430700F7430700F74307006C
:10405000F7430700F7430700F7430700F74307005C
:10406000F7430700F7430700F7430700F74307004C
:10407000F7430700F7430700F7430700F74307003C
:10408000215D0700AD570700F7430700F74307001E
:10409000F7430700F7430700015A0700F7430700FB
:1040A000F7430700F7430700F7430700F74307000C
:1040B000F7430700F743070000000000000000007E
:1040C000F7430700F7430700F7430700F7430700EC
:1040D000F7430700F7430700F7430700000000001D
:1040E00000000000000000000000000000000000D0
:1040F00000000000000000000000000000000000C0
:1041000000000000000000000000000000000000AF
:10411000000000000000000000000000000000009F
:10412000000000000000000000000000000000008F
:10413000000000000000000000000000000000007F
:10414000000000000000000000000000000000006F
:10415000000000000000000000000000000000005F
:10416000000000000000000000000000000000004F
:10417000000000000000000000000000000000003F
:10418000000000000000000000000000000000002F
:10419000000000000000000000000000000000001F
:1041A000000000000000000000000000000000000F
:1041B00000000000000000000000000000000000FF
:1041C00000000000000000000000000000000000EF
:1041D00000000000000000000000000000000000DF
:1041E00000000000000000000000000000000000CF
:1041F00000000000000000000000000000000000BF
:10420000DFF80CD000F096F900480047CD770700A2
:104210009898002080F308888E46104730B450E804
:10422000012F93B2C48923448489A34228BF1B1B56
:104230000489A34202BFBFF32F8F002007E0C3EA27
:10424000020340E80134002CE9D14FF001000A607C
:1042500030BC704750E8012FC2EA024240E8012119
:104260000029F7D1704730B450E8022F1FFAA2F3AB
:10427000C488A34202BFBFF32F8F00200DE0C48982
:1042800023448489A34228BF1B1BC2EA034340E89E
:104290000234002CE8D14FF001000A6030BC7047B6
:1042A00050E8022FC2EA224240E802210029F7D159
:1042B0007047034653E8022FD988B2EB324F4FF0D4
:1042C000000017BF92B241EA014142EA014104E015
:1042D0005A68B2EB324F08BF012043E80212002AAD
:1042E000E8D1704730B4044654E8000F0D4644E866
:1042F0000053002BF8D1156030BC704730B4044631
:1043000054E8000F40EA010544E80053002BF7D1C0
:10431000156030BC704730B4044654E8000F00EA22
:10432000010544E80053002BF7D1156030BC7047FD
:1043300030B4044654E8000F80EA010544E8005315
:10434000002BF7D1156030BC704730B4044654E8F8
:10435000000F00EB010544E80053002BF7D1156076
:1043600030BC704730B4044654E8000FA0EB0105A0
:1043700044E80053002BF7D1156030BC704770B48F
:1043800004464FF0000054E8006F0D68AE4207BFCE
:1043900044E80023012044E800630E60002B1CBFAA
:1043A0000020F0E770BC704730B4044654E8000FBA
:1043B00088422CBF451A054644E80053002BF5D12E
:1043C000156030BC704700001EF0040F0CBFEFF307
:1043D0000880EFF3098005F013BA00000648804713
:1043E00006480047FEE7FEE7FEE7FEE7FEE7FEE7DA
:1043F000FEE7FEE7FEE7FEE7055A07000142070079
:104400002DE9F05F0546002092469B468846064609
:10441000814640241BE0284641464746224600F09C
:1044200079F853465A46C01A914110D3114618469E
:10443000224600F016F82D1A67EB01084F46224677
:104440000120002100F00DF817EB00094E41201E5D
:10445000A4F10104DFDC484631462A464346BDE864
:10446000F09F202A04DB203A00FA02F10020704776
:104470009140C2F1200320FA03F3194390407047A2
:1044800040EA01039B0703D009E008C9121F08C0D6
:10449000042AFAD203E011F8013B00F8013B521E56
:1044A000F9D27047D2B201E000F8012B491EFBD2CD
:1044B00070470022F6E710B513460A46044619462F
:1044C000FFF7F0FF204610BD30B50446002003463C
:1044D00000E05B1C934203D2E05CCD5C401BF8D053
:1044E00030BD034611F8012B00F8012B002AF9D149
:1044F000184670470246C9B200E0401C0378002B02
:10450000FBD102E003788B4203D0401E9042F9D2E7
:1045100000207047202A04DB203A21FA02F0002113
:10452000704721FA02F3D040C2F1200291400843C3
:1045300019467047064C074D06E0E06840F001035D
:1045400094E8070098471034AC42F6D3FFF75CFEBE
:10455000F4D3070014D407002DE9F0438BB01446C0
:10456000129D15F9046B00961F46804689462B461E
:104570000246214602A800F0A1FC02A9129A0846B0
:1045800000F08CFC129B02AA4146404600F076FCEB
:10459000129B02AA2146204600F070FC2B464A4698
:1045A00039463846009600F089FC129A394602A82E
:1045B00000F074FC02A92B4642460846009600F023
:1045C0007DFC02A92B4622460846009600F076FCA8
:1045D0002B46424621462046009600F06FFC129B77
:1045E00022464946484600F049FC2B4602AA41466D
:1045F0002046009600F062FC129B2246394638465F
:1046000000F03CFC2B464A4639463846009600F0FE
:1046100055FC324602A9204600F017FE0BB0BDE85B
:10462000F083F0B5154689B01C4607460E461A467B
:104630002946684600F032FC23466A463946384629
:1046400000F01CFC23462A466946684600F016FC2A
:1046500023466A463146304600F010FC09B0F0BDF2
:104660008B1802448B4200D1704713F8010D02F8F9
:10467000010DF7E72DE9F047B3F9024088461E46E1
:1046800004F11F012023073491FBF3F708234FFAAD
:1046900087F994FBF3F4944228BF14464946054633
:1046A00000F064FA22464146FFF7DAFFB6F902301D
:1046B000E4009C421FD9E41A05EB87010022C4F1F3
:1046C00020078D420ED324364A462946304600F054
:1046D00058FA01280FD04B4632462846BDE8F0472D
:1046E00000F006BF51F8040D20FA04F313430B60E9
:1046F00000FA07F2E5E7BDE8F0872DE9F04793F906
:10470000006092B0044689461046314615469846E8
:1047100000F05EFA002840F091804246494602A827
:1047200000F0BCFB434602AA21460AA800F0A6FB03
:1047300002A90846424600F0B1FB43462A464946D4
:10474000484600F09BFB08F10407424629462846EC
:1047500000F0A4FB3B462A4621462046009600F086
:10476000E0FA3B462A4629462846009600F0D9FA48
:104770003B462A4621462846009600F09FFB4346CA
:104780002A462146204600F079FB3B462246214638
:104790002846009600F0C5FA3B4600962A46214678
:1047A000204600F0BEFA2368DB074AD533463A4676
:1047B0002146204600F0ACF931468246204600F002
:1047C00037FD06F18043013B54F8230040EACA70EC
:1047D00044F8230042462146284600F05FFB3B4652
:1047E0000AAA29462846009600F068FB3B460AAA1A
:1047F00029462846009600F061FB0AA908463B4678
:104800002A46009600F05AFB43460AAA2146204653
:1048100000F034FB02AA3B4610462146009600F009
:104820004DFB32462946204600F00FFD49462846FA
:1048300000F00BFD02A9484600F007FD12B0BDE8EC
:10484000F0873146204600F0F3FCC3E7004870478C
:1048500044D307002DE9F04FEDB01F46DDF8D881B5
:104860000590B8F9026098F9005020231F3696FB96
:10487000F3F676B206F1FF3924AB002443F8294061
:104880006CAB03EB89034CA88A469346394698F9EA
:10489000012043F8804C43F8604CFFF7E1FE98F9A3
:1048A000012054A8B918FFF7DBFE29464CA800F0F8
:1048B0008FF90746002840F0208154A800F088F9BD
:1048C0000390002840F01B8108F1240332464CA9D4
:1048D0001846029300F055F9012840F01281324643
:1048E00054A9029800F04DF90128069040F0098182
:1048F0001CAC0CAF3346029A54A9204600F02AFAA9
:10490000039B47F829305A46514638464346FFF73D
:10491000B1FE39463846029B0096224600F09DFAC9
:104920000DF5B879029B009622464CA914A800F018
:1049300094FA2A464846059900F087FCAB0009EB3B
:10494000030A0793059BA900591808F1440B504628
:1049500000F07BFC594634A800F077FCAB000BEB71
:1049600003013CA800F071FC08F10403494634AA95
:1049700020460095049300F0A1FA53464A463CA90C
:1049800034A8CDF80080FFF7E7FD2B46049A2146B6
:10499000204600F0DFF92246514648464346FFF7DD
:1049A00040FE039BCDE9083B059B31463846CDE9E7
:1049B0000A3900F01EFC3146814614A800F019FCAB
:1049C0008145B8BF81461FFA89F909F1FF3B0FFA0B
:1049D0008BFB5946384600F0BBFD5946071C14A80E
:1049E00018BF012700F0B4FD002814BF02230023E4
:1049F0001F430DF1200A2A465AF8277024A8394689
:104A000000F023FC0DF1B00BAB00F918584600F094
:104A10001CFC2946204600F0A9F8A9F10209069BD2
:104A200023600FFA89F90DF1900AB9F1000F1FDA2E
:104A30002B46049A2146204600F08CF94346224634
:104A400059465046FFF7EDFD32465146029800F0B8
:104A500098F8012804D03346029A504600F048FDE9
:104A60002A464CA9504600F0A1F86DB0BDE8F08F81
:104A700043462246D8F8A47059465046B84749469E
:104A80000CA800F065FD4946071C14A818BF0127B3
:104A900000F05EFD002814BF022300231F4308AB73
:104AA00053F8277027B32A46394634A800F0CDFBC7
:104AB000079B3CA8F91800F0C8FB434622463CA9D6
:104AC00034A8FFF7AEFD049B009534AA514644A8D4
:104AD00000F0F4F95B4652463CA934A8CDF80080BA
:104AE000FFF73AFD434644AA2146204600F0C6F9A6
:104AF00009F1FF390FFA89F997E72046B5E73846FB
:104B0000B3E70398B1E700000000000000000000D8
:104B1000C3F10803DB0070B50133002403A500BF17
:104B20005B1920C940CAAD1920C0184720C940CA26
:104B3000754120C020C940CA754120C020C940CA63
:104B4000754120C020C940CA754120C020C940CA53
:104B5000754120C020C940CA754120C020C940CA43
:104B6000754120C06441204670BD00BF002310B5D0
:104B70001C465AB2914200DC10BD40F8234001337C
:104B8000F7E710B5013A52B2130601D5002010BD67
:104B900050F8224051F822309C4205D802F1FF32F1
:104BA000F2D24FF0FF30F2E70120F0E730B5013AE2
:104BB00052B20023140603D5B3FA83F0400930BD86
:104BC00050F8224051F822506C402343013AF1E75B
:104BD00010B500231A465CB2A14203DCB2FA82F09F
:104BE000400910BD50F8234001332243F3E72DE97B
:104BF000F04FA5B01D4614ABCDE9023181462946E0
:104C00001046174600F0F5FAC0EB851004B2634277
:104C100003F01F034FF0200694FBF6F676B204F083
:104C20001F0804A858BFC3F100083146FFF79EFFD4
:104C3000B8F1000F30B22DDD04AB002203EB800091
:104C4000C8F1200C13469D4219D82FB27B00019366
:104C500004AB03EB870705F1FF3824AB012603EB18
:104C60008808002C53DA24AB03EB86062A4656F854
:104C7000881C484600F0E9FA25B0BDE8F08F57F8E7
:104C8000236006FA08F10A4340F8232026FA0CF2C2
:104C90000133D8E704AB2A46394603EB800000F025
:104CA000D4FAD2E70FFA82FE5AF8883C53F82EB0B5
:104CB00024AB03EB820252F8803CABEB03031B1ADC
:104CC0009B4502D034BF012000205CF8882C42F8BC
:104CD0002E300131019B4AB29A42E3DB331A5E4225
:104CE000294604A85E4100F0A3FA24AB03EB850338
:104CF000294653F8802C58F8803C384643EAC27362
:104D0000013C48F8803C24B200F092FAA9E724ABB9
:104D10000021C6F1010C084603EB860A03EB8C0C5C
:104D2000D8E770B59DF910401E4623460546FFF7AB
:104D3000EFFE30B9224629463046FFF722FF012810
:104D400007D02346324629462846BDE8704000F089
:104D5000CFBB70BDF0B50F46A1B006461946384628
:104D600015461C46FFF734FF20B13046FFF7FEFE24
:104D700021B0F0BD22463946684600F066FA294661
:104D800008A800F062FA10A82146FFF7EFFE012301
:104D900018A81093FFF7EAFE224608A96846FFF715
:104DA000F0FE28B9224610A9304600F04EFADFE79F
:104DB000009BDA0709D42146684600F039FA2246FA
:104DC000294610A800F0A4FCE6E7089BDB0707D4FF
:104DD000214608A800F02CFA2246294618A8F1E737
:104DE000002823461CDD08AA6946684600F080FBBF
:104DF0002146684600F01CFA224618A910A8FFF7C1
:104E0000C0FE002805DA10A923462A460846FFF707
:104E10007FFE10A9234618AA084600F069FBCEE7DA
:104E200008A96A46084600F063FB214608A800F07E
:104E3000FFF9224610A918A8FFF7A3FE002805DAFB
:104E400018A923462A460846FFF762FE18A92346FA
:104E500010AA084600F04CFBBEE770B590B00546BE
:104E60009DF950401E466846234600F039F8324608
:104E700069462846FFF7BBFE10B070BD30B51C4632
:104E800091B0054693F90030684600F029F8D4F84F
:104E9000AC3069462846984711B030BD30B514464D
:104EA00091B0054692F90020684600F0DAF9D4F88E
:104EB000AC3069462846984711B030BD70B59DF9B1
:104EC00010401E462346054600F012FB38B123462B
:104ED000324629462846BDE87040FFF719BE70BD2E
:104EE0002DE9F04F08B4F8CA04B451F8042BA3FB21
:104EF000028940F8048B4FF0000AE4FB629A4FF0FD
:104F0000000BE5FB62AB4FF0000CE6FB62BC4FF020
:104F1000000EE7FB62CE51F8042B4FF00008E3FBD4
:104F2000628940F8048BE4FB629AE5FB62ABE6FB26
:104F300062BCE7FB62CE51F8042B4FF00008E3FBA4
:104F4000628940F8048BE4FB629AE5FB62ABE6FB06
:104F500062BCE7FB62CE51F8042B4FF00008E3FB84
:104F6000628940F8048BE4FB629AE5FB62ABE6FBE6
:104F700062BCE7FB62CE51F8042B4FF00008E3FB64
:104F8000628940F8048BE4FB629AE5FB62ABE6FBC6
:104F900062BCE7FB62CE40F8049B40F804AB40F8EB
:104FA00004BB40F804CB40F804EB0CBC052B00F02C
:104FB0001E810C68A0F11400A1F11401A2F11402E9
:104FC00052F804EB4FF0000550F8046BE4FB6E560A
:104FD00052F804EB50F8047BE4FB6E6752F804EBE4
:104FE00050F8048BE4FB6E7852F804EB50F8049B05
:104FF000E4FB6E8952F804EB50F804ABE4FB6E9AC4
:10500000A0F1140052F8044B51F804EB4FF0000CDF
:10501000E4FB6EC540F804CB51F804EBE4FB6E569C
:1050200040F8045B51F804EBE4FB6E6740F8046B56
:1050300051F804EBE4FB6E7840F8047B51F804EB84
:10504000E4FB6E8940F8048B51F804EBE4FB6E9AA4
:10505000A0E80006062B00F0CA800C68A0F118003A
:10506000A1F11801A2F1180252F804EB4FF000056B
:1050700050F8046BE4FB6E5652F804EB50F8047BD6
:10508000E4FB6E6752F804EB50F8048BE4FB6E7897
:1050900052F804EB50F8049BE4FB6E8952F804EBE1
:1050A00050F804ABE4FB6E9A52F804EB50F804BBE2
:1050B000E4FB6EABA0F1180052F8044B51F804EB7E
:1050C0004FF0000CE4FB6EC540F804CB51F804EB44
:1050D000E4FB6E5640F8045B51F804EBE4FB6E67AA
:1050E00040F8046B51F804EBE4FB6E7840F8047B65
:1050F00051F804EBE4FB6E8940F8048B51F804EBA3
:10510000E4FB6E9A40F8049B51F804EBE4FB6EABB1
:10511000A0E8000C072B6AD008B40C68A0F11C00B2
:10512000A1F11C01A2F11C0252F804EB4FF00005A2
:1051300050F8046BE4FB6E5652F804EB50F8047B15
:10514000E4FB6E6752F804EB50F8048BE4FB6E78D6
:1051500052F804EB50F8049BE4FB6E8952F804EB20
:1051600050F804ABE4FB6E9A52F804EB50F804BB21
:10517000E4FB6EAB52F804EB50F804CBE4FB6EBCDE
:10518000A0F11C0052F8044B51F804EB4FF000035F
:10519000E4FB6E3540F8043B51F804EBE4FB6E563B
:1051A00040F8045B51F804EBE4FB6E6740F8046BD5
:1051B00051F804EBE4FB6E7840F8047B51F804EB03
:1051C000E4FB6E8940F8048B51F804EBE4FB6E9A23
:1051D00040F8049B51F804EBE4FB6EAB40F804ABE1
:1051E00051F804EBE4FB6EBCA0E8001808BCBDE875
:1051F000F08F013949B20A06CBB205D4013900EB70
:1052000081025268002AF6D001335BB273B103F118
:105210008042013A50F82220002022B9013B00EBE5
:10522000431318B2704752080130F6E7184670472A
:1052300000EB81010023884200D3704751F8042D10
:1052400043EA52030B60D307F5E710B500235CB2C5
:10525000A24200DC10BD51F8234040F82340013346
:10526000F5E72DE9F04FB1E8005E06B4AAFB09129C
:105270004FF00003EBFB69234FF00004ECFB6934B3
:105280004FF00005EEFB69454FF00006EBFB6A634B
:10529000ECFB6A344918524176415B41A9FB09781D
:1052A0004FF0000949F1000918EB0108A0E880015E
:1052B000AAFB0A78574158EB0608A0E88001EEFBEC
:1052C0006A454FF0000A4AF1000A4FF00001ECFB7A
:1052D0006B14EEFB6B454FF00002EEFB6C255FEAB2
:1052E00059094941644152416D4149F10009EBFBC3
:1052F0006B3A1AEB010AA0E80804ACFB0C6A6641A1
:105300005AEB020AA0E84004AEFB0E6A6E415AEB6B
:10531000090AA0E8400406BC052A00F0E680A0F1D6
:105320001400A1F11401B1E8E043A5FB0E344FF0E5
:105330000005E6FB6E454FF00006E7FB6E564FF0AA
:105340000007E8FB6E674FF00008E9FB6E784FF04E
:105350000009DB1864416D4176417F4158EB080834
:1053600059F1000950F804CB13EB0C0350F804CBAF
:1053700054EB0C0450F804CB55EB0C0550F804CB5F
:1053800056EB0C0650F804CB57EB0C0758F100080D
:1053900059F10009A0F11400EEFB0E89A0E8F80312
:1053A000062A00F0A280A0F11800A1F11801B1E8CE
:1053B000E047A5FB0E344FF00005E6FB6E454FF0CD
:1053C0000006E7FB6E564FF00007E8FB6E674FF0F4
:1053D0000008E9FB6E784FF00009EAFB6E894FF098
:1053E000000ADB1864416D4176417F4158EB0808A3
:1053F00059EB09095AF1000A50F804CB13EB0C03DE
:1054000050F804CB54EB0C0450F804CB55EB0C05CE
:1054100050F804CB56EB0C0650F804CB57EB0C07B6
:1054200050F804CB58EB0C0859F100095AF1000A66
:10543000A0F11800EEFB0E9AA0E8F807072A54D056
:10544000A0F11C00A1F11C01B1E8E04FA5FB0E3456
:105450004FF00005E6FB6E454FF00006E7FB6E5689
:105460004FF00007E8FB6E674FF00008E9FB6E782D
:105470004FF00009EAFB6E894FF0000AEBFB6E9AD1
:105480004FF0000BDB1864416D4176417F4158EBD2
:10549000080859EB09095AEB0A0A5BF1000B50F8AE
:1054A00004CB13EB0C0350F804CB54EB0C0450F872
:1054B00004CB55EB0C0550F804CB56EB0C0650F81A
:1054C00004CB57EB0C0750F804CB58EB0C0850F802
:1054D00004CB59EB0C095AF1000A5BF1000BA0F167
:1054E0001C00EEFB0EABA0E8F80FBDE8F08F00004B
:1054F000C3F10803DB0070B50133002403A500BF2E
:105500005B1920C940CAAD1B20C0184720C940CA3A
:10551000B54120C020C940CAB54120C020C940CAF9
:10552000B54120C020C940CAB54120C020C940CAE9
:10553000B54120C020C940CAB54120C020C940CAD9
:10554000B54120C06441B4FA84F0400970BD00BF89
:105550004A11012350F8220001F01F0103FA01F162
:1055600008407047F0B5082289B00C460646FFF7A0
:105570006CFECB6A03930B6B04934B6B05938B6BA5
:105580000693CB6B0793002708236A466946684653
:10559000CDE901770097FFF7BBFA082305466A4675
:1055A00031463046FFF7B4FA236B0393636B0493E1
:1055B000A36B0593E36B0544CDE906376A460823E0
:1055C00069466846FFF7A4FA082305446A4631464F
:1055D0003046FFF79DFA236A0093636A0193A36A3A
:1055E0000293A36B0693E36B0793054408236A4673
:1055F00031463046CDE904770397FFF789FA636AAD
:105600000093A36AA26B0193E36A02930492636B13
:10561000E26B0393CDE90523236A0793054408232E
:105620006A4631463046FFF773FAE36A0093236B0C
:105630000193636B0293236A0693A36A079305445D
:1056400008236A4631463046CDE904770397FFF7D1
:105650004FFF236B0093636B0193A36B0293E36B88
:105660000393636A0693E36A07932D1A08236A4635
:1056700031463046CDE90477FFF73AFF636B00937C
:10568000A36B0193E36B0293236A0393636A04930E
:10569000A36ACDE90537236B07932D1A08236A46C1
:1056A00031463046FFF724FFA36B0093E36BCDE94F
:1056B0000137636A0393A36A0493E36ACDE905376C
:1056C000636B07932D1A08236A4631463046FFF76D
:1056D0000FFF2D1A0D4C0FD435B908223146204644
:1056E000FFF74FFA01280FD00823224631463046F3
:1056F000FFF7FEFE2D1AEFE708232246314630461B
:10570000FFF706FA2D18F7D409B0F0BD48D307000B
:1057100070B5036813F001050646144605D013461C
:105720000A460146FFF7F4F9054621463046FFF7E1
:105730007FFD45B104F18042013A56F8223043F032
:10574000004346F8223070BD2DE9F0438BB004468B
:10575000154689460AAE1C22002103A8FEF7ABFEBF
:10576000032346F8203D95F900802A464946204605
:105770002F1DFFF793FB3B46324621462046CDF8CE
:105780000080FFF79BFB2B464A4621462046FFF749
:1057900075FBCDF800803B4605F18402214620468A
:1057A000FFF7BFFA0BB0BDE8F083000002490248E2
:1057B000091F09680068084730580020F8B50D4BEC
:1057C0000646144618780D4608B900F0B3FA0020D2
:1057D0008DF80000684600F077FE224629463046E4
:1057E00000F00AF804469DF8000000F091FE204603
:1057F000F8BD00000C76002070B50E46144900EB91
:10580000400001EBC0051446E86A183520B10128B4
:105810000FD0022805D113E0284600F0BFFAA042BD
:1058200001D2002411E022463146284600F0DCFB7C
:105830000BE0284600F0B2FAA042F4D20446F2E7A8
:105840003146284600F0A3FB0446204670BD000008
:105850000C7600200FB408B504A900916A4603999C
:1058600000F003F801B05DF814FB2DE9F04198B0A9
:10587000064607A8029040200025CDE90305CDE9A2
:10588000055690460C4614F8011B002973D02529B3
:1058900008D002A800F05CFB05980028F3DA18B0E5
:1058A000BDE8F081002001212278232A1ED02B2A76
:1058B00019D02D2A02D0302A08D102E040F0010090
:1058C00001E040F00200641C0029EDD100222178A3
:1058D000A1F130030A2B0CD202EB820201EB42024F
:1058E000303A641CF3E740F00400ECE740F00800B5
:1058F000E9E70023CFB22E2F0BD114F8011FA1F13D
:1059000030070A2F05D203EB830301EB4303303B3F
:10591000F3E76C290DD068290BD0702954D00BDC2B
:10592000252916D0582931D063290CD0642913D1E8
:1059300014E014F8011FECE7732934D075291BD04B
:10594000782909D122E0D8F80000011DC8F800101C
:10595000017802A800F0FCFA641C9DE7D8F800105A
:105960000F1DC8F800700968CDE900200A2202A8BE
:1059700000F020FAF0E733E0D8F800100F1DC8F867
:1059800000700968CDE900200A2208E0D8F800106C
:105990000F1DC8F800700968CDE90020102202A888
:1059A00000F06CFAD8E7D8F80000011DC8F8001024
:1059B000076817F8011B0029CED002A800F0C8FA2A
:1059C00005980028F5DAC7E7D8F80000011DC8F8E7
:1059D000001001680820CDE9000503461022DEE72B
:1059E000059800287FF75BAF049820B1024607A90D
:1059F0003046FFF7E3FEDDE90410084405904EE76A
:105A000003F020BEF0B5B5480023021D0178101D3B
:105A100001254FF0805406290BD11678360708D19E
:105A20000678C6F30316032E06D0042E04D0052EE6
:105A300002D0062907D00EE0B4F82463A84FC6F3BD
:105A400004263E6002E01678360704D10678C6F3D5
:105A50000316032E02D0062904D00FE0A24FA14E58
:105A60007E670EE01678360708D10678C6F303166F
:105A7000032E06D0042E04D0052E02D0062907D00E
:105A80000EE0D4F84462994FC6F342363E6002E01D
:105A90001678360704D10678C6F30316032E02D013
:105AA000062906D011E0924E376827F080773760DC
:105AB0000EE01678360708D10678C6F30316032ED3
:105AC00006D0042E04D0052E02D006290AD011E0FB
:105AD0004FF08046C6F80C31C6F81031834E361FA1
:105AE000336002E01678360704D10678C6F3031651
:105AF000032E02D0062905D00CE07C4F0326643724
:105B00003E600AE01678360704D10678C6F303161D
:105B1000032E02D006290DD014E0764F05263E60F4
:105B2000744E78363560734E083633603F263F1D1D
:105B30003E6002E01678360704D10678C6F30316F5
:105B4000052E02D0062957D062E06B4E36686B4FA7
:105B50003E60694E361D36683F1D3E60664E083613
:105B600036683F1D3E60644E0C3636683F1D3E6011
:105B7000614E103636683F1D3E605F4E1436366803
:105B80003F1D3E605C4E183636685C4F20373E60E5
:105B9000594E1C3636683F1D3E60574E20363668DB
:105BA0003F1D3E60544E243636683F1D3E60524EC7
:105BB000283636683F1D3E604F4E2C3636683F1DF6
:105BC0003E604D4E303636684C4F40373E604A4E50
:105BD000343636683F1D3E60474E383636683F1DC6
:105BE0003E60454E3C3636683F1D3E60424E403674
:105BF00036683F1D3E6002E01678360708D1067809
:105C0000C6F30316032E06D0042E04D0052E02D0B0
:105C1000062907D019E0D4F85812394A01F04F018B
:105C2000116002E0117809070FD10078C0F303106A
:105C3000032803D0042801D0052806D13148016883
:105C4000C90702D06FF001010160D4F830010628C5
:105C500008D1D4F83401062804D12B48016841F456
:105C60008061016022487438016841F4700101606C
:105C7000BFF34F8FBFF36F8F4FF01021D1F80002A9
:105C8000002803DBD1F80402002822DA1F4A15603D
:105C90001F480468002CFCD01524C1F80042056898
:105CA000002DFCD0C1F8044201680029FCD013602B
:105CB00001680029FCD0BFF34F8F0D48F038016810
:105CC000144A01F4E06111430160BFF34F8F00BF3C
:105CD000FDE7124910480860F0BD0000E00F00F039
:105CE000403501400DF0ADBA00C007403C05004012
:105CF000FCED00E0105600400404001020C50040F8
:105D0000E40E0040000400403C17004004E5014060
:105D100000E401400400FA050090D0034858002038
:105D2000034808B5002101600068009008BD00002C
:105D30000001014010B5124C02202061606111A0E9
:105D4000A06104F17800E0614FF40070206200204F
:105D5000A06260620BA1A164E06204F51E71E164BF
:105D60001021A065C4E91410E06509A1E01DFEF74B
:105D7000B8FB08A12046FEF7B4FB2020A07110BD9F
:105D80000C7600205465726D696E616C0000000035
:105D90005254540053454747455200000269C168B8
:105DA0008A4203D88068401A104400E0501A401E0E
:105DB000704700002DE9FC5F0E008146DDE90C47CD
:105DC000C6F1000098469346824600D40846012555
:105DD00003E000BF90FBFBF06D1C5845FADAA845C4
:105DE00000D9454624B1002E01DB780700D5641E9A
:105DF000B80702D5B8F1000F0FD0F8070DD164B184
:105E0000A5420AD220214846641E00F0A1F8D9F824
:105E10000C000028F3DABDE8FC9FD9F80C0000283C
:105E2000F9DB002E02DA56462D2102E0780707D56D
:105E30002B21484600F08CF8D9F80C000028EADB4A
:105E400007F0030002280FD1B8F1000F0CD15CB1AC
:105E5000A54209D230214846641E00F079F8D9F8ED
:105E60000C000028F3DAD6E7CDE9004743465A464E
:105E70003146484600F002F8CDE700002DE9F84F22
:105E80008246DDE90A4B0126984691460D460846B2
:105E9000374602E0B0FBF9F07F1C4845FAD2B8451E
:105EA00000D947465FEACB7017D1B4B15FEA8B7077
:105EB00002D5B8F1000F02D0202000900BE0302076
:105EC000FBE75046641E009900F042F8DAF80C0037
:105ED000002838DB0CB1A742F3D3DAF80C00002815
:105EE00031DB00BFB8F1010F02D9A8F1010803E0CE
:105EF000B5FBF6F0484502D306FB09F6F2E7DFF8FA
:105F00004C8000BFB5FBF6F000FB165518F80010EA
:105F1000504600F01DF8DAF80C00002803DBB6FB51
:105F2000F9F6002EEED15FEACB700CD0002C0AD02F
:105F3000A74208D220215046641E00F009F8DAF882
:105F40000C000028F2DABDE8F88F000058C90700FD
:105F500010B50446D4E90130421C934205D32368AE
:105F60001954A260E068401CE060D4E9010282425A
:105F700009D121682069FFF721FCA168884203D07C
:105F80004FF0FF30E06010BD0020A06010BD2DE993
:105F9000F047C4681746894606464FF00008306946
:105FA000A04201D9051B02E0B168201A0D1AB068A1
:105FB0006D1E001BA84200D80546BD4200D33D46D9
:105FC00070682A4620444946FEF75AFAB0687F1B9B
:105FD0002C44A844A944A04200D10024F460002F1E
:105FE000DDD14046BDE8F0872DE9F0410446884602
:105FF000D4E90207C51BE168606816460844B5424B
:1060000006D94146FEF73CFAB819E060BDE8F081D8
:106010002A464146FEF734FA761B08EB0501324664
:106020006068FEF72DFAE660F0E702E008C8121F8C
:1060300008C1002AFAD170477047002001E001C171
:10604000121F002AFBD170470121202803DA81406A
:106050000548014003E0402802DA2038814009B1B8
:106060000120704700207047FC06FFBD082806D2BB
:1060700028B1012803D0042801D001207047002056
:106080007047800701D00020704701207047C36827
:106090008B4206D811440069491E814201D8012073
:1060A000704700207047000030B585B00D46164C93
:1060B0001621ADF800101ECC0DF1040C8CE81E006A
:1060C000124C0221012221706270A0700320E07046
:1060D000217159206071FE20A071694604F1090008
:1060E0007DDF00280ED1BDF800002A46411CE17179
:1060F00009212172BDF808100844ADF8080001A973
:10610000034872DF05B030BDA4C20700B05C0020B8
:10611000CC57002010B586B00624182208496846DE
:10612000FEF7AEF969462046FFF7BEFF002805D10D
:10613000044C207874DF0121207873DF06B010BD95
:10614000B4C20700CC5700202DE9FE43DFF8F490DD
:106150004C46D9F84880D9F8246002F0BFF8216B8A
:106160004418751A5C213848FEF7C4F928B15C213F
:106170003548FEF7BFF9421C00E0334A334FA823ED
:1061800033A100200097FFF765FBD9F83010414498
:10619000A14200D1002508232A46204601F0B2F989
:1061A0005FEA000812D05C212748FEF7A3F928B166
:1061B0005C212548FEF79EF9421C00E0224AB423E8
:1061C0002EA100200097FFF745FB37E002F086F88C
:1061D0000022314600F0B8FD0546D9F828004C46AB
:1061E000A84219484FF05C0114D1FEF783F928B199
:1061F0005C211548FEF77EF9421C00E0124ABD23DF
:1062000029A100200097FFF725FB0120A661C4E922
:10621000075013E0FEF76EF928B15C210A48FEF73B
:1062200069F9401C00E00848C4230246A06A0097B0
:10623000CDE9010526490020FFF70CFB4046BDE8EB
:10624000FE8300000C6F0020CCCC0700CBC0070001
:106250005B25733A25642028257329205D20456E2F
:10626000746572206E72665F6466755F6170705FE0
:10627000636F6E74696E7565200A0D005B25733A55
:1062800025642028257329205D204661696C65649A
:1062900020746F20636F7079206669726D77617208
:1062A000652E200A0D0000005B25733A2564202826
:1062B000257329205D2053657474696E67206170B1
:1062C000702061732076616C6964200A0D00000003
:1062D000B8CB07000EB5054B8DE8070064220449D2
:1062E0000020FFF7B7FA04F03DF80000E3BF070015
:1062F000B8C907000EB5054B8DE807006B220449AD
:106300000020FFF7A7FA04F02DF80000FBBF0700FC
:1063100068C907002DE9F84F254C814692466088F0
:106320000E46814241D800274FF6FF788DF8007065
:10633000684600F0C9F822786078A188884201DABE
:10634000401C00E00020C0B2904204D19DF8000043
:1063500000F0DEF827E065786078884201DA401CBA
:1063600000E0002060709DF8000000F0D1F8454585
:1063700019D0A068B9F1000F40F835A00DD066B172
:106380006188E068324605FB01004946FEF778F86F
:10639000A06800EBC500868002E000EBC5008780A6
:1063A0000020BDE8F88F0420FBE70920F9E7000092
:1063B0000858002010B50E4C03E0401C00E00020FF
:1063C000207020786178814210D022786188E0685E
:1063D000A36802FB010003EBC20153F83220898855
:1063E00090472078A1888842E9DAE6E710BD0000EE
:1063F0000858002030B5CB0008339DB293074FF00A
:10640000000401D0072030BD044B9A602A44DA60B2
:106410005C701C7058809980002030BD08580020A6
:106420003AB100680129C26000D0002181600020DB
:10643000704707207047000038B50E4808235822DF
:10644000416800910C49006801F022FA00280FD140
:106450000A4A69460A4800F035FE040008D10121C5
:10646000074800F08CFE06490120083908702046D4
:1064700038BD0000DCC50700A8730020EDB00700A0
:106480002058002070B504460A480D46814201D9C3
:10649000072070BD0848226100F010FE28446060AB
:1064A000A06800B1A5602146BDE87040002005F05D
:1064B0003FBC000017FCFF002058002001460020D0
:1064C0000875012005F034BC30B5EFF3108172B6C9
:1064D0000D4A9468012324B10370002900D162B6EB
:1064E00030BD93604FF0E023D3F88051074C254036
:1064F0001560C3F88041D3F8844154605A17C3F83B
:10650000842100220270E8E700740020FC06FFBD31
:106510000B498A68002A11D000280FD1EFF31080B0
:1065200072B60B684FF0E022C2F800314B68C2F837
:10653000043100228A60002800D162B67047000052
:10654000007400202DE9FF413E4E3E4856F8245F7E
:10655000846CB168AC2902D1406B04442D1A5C21D3
:106560003948FDF7C7FF28B15C213748FDF7C2FF66
:10657000401C00E03448364F024634480DF1040810
:10658000009788E8310040F21B1332490020FFF7E2
:1065900061F9B068AC2806D12A46A4F580412B48A1
:1065A000FDF792FF80B12A4621462848FDF78CFF6F
:1065B00050B15C212448FDF79DFFB8B15C21224811
:1065C000FDF798FF401C12E000245C211E48FDF7F7
:1065D00091FF28B15C211C48FDF78CFF421C00E0B4
:1065E000194A4FF499731C49009723E01648009705
:1065F00002464FF49B7319A10020CDE90145FFF736
:1066000029F901F0EBFC2946204602F00DF80400C0
:1066100013D05C210C48FDF76DFF28B15C210A48BE
:10662000FDF768FF401C00E0074840F241130246B6
:106630001AA100970020FFF70DF904B02046BDE82D
:10664000F08100000C6F0020CCCC07000040070058
:10665000E4C0070014CC070070CB07005B25733A39
:1066600025642028257329205D20436F7079696E89
:106670006720626F6F746C6F616465723A20537249
:10668000633A203078253038782C204C656E3A20DB
:10669000307825303878200A0D0000005B25733AE9
:1066A00025642028257329205D2052657175657346
:1066B0007420746F20636F707920424C206661698A
:1066C0006C6564200A0D000030B504462C4995B075
:1066D0004FF6FF70488001208DF812004FF6596088
:1066E000ADF81000224604A90120A8DF002844D1FB
:1066F000244B0FCB8DE80F00A11C684662DF0028F9
:106700003BD120491C2260390BA8FDF7B9FE1E4D74
:10671000142205F1E801A8681290A0788DF84A00CB
:106720002868139006A8FDF7ABFE12A8069013A8E0
:1067300007902088231D06AA0BA9AADF00281CD1D8
:106740001C2205F1FC010BA8FDF79AFEE8681290E7
:10675000A0788DF84A0068681390142205F58C71B2
:1067600006A8FDF78DFE12A8069013A807902088B2
:1067700004F10C0306AA0BA9AADF15B030BD000076
:10678000CC5700208CC3070060C20700F0B585B06D
:10679000044614216846FDF78CFE20780323082860
:1067A0000BD12748C188491E89B2C1808288002A3E
:1067B0003ED000293CD1C2802370217860786022CD
:1067C0008DF800208DF801108DF80200607803210B
:1067D00001280AD00B2828D100F0F2FD8DF8030023
:1067E000002000F0F5FD04211FE0207809281CD2CC
:1067F000DFE800F01B1B1B201B1B051B2000D4E93E
:1068000002706D46E91C666805F0CCFA0446291949
:106810003046C91C05F0C6FA044429193846C91C7B
:1068200005F0C0FA2044C01CC1B2684604F040FC28
:1068300005B0F0BDD4E90112684604F029FCF2E786
:10684000CC5700202DE9F0411349034600208A6807
:10685000D4071ED0114CA3421BD04888A0F57F431B
:10686000FF3B10D042F004028A60132176DF00283B
:106870000FD10B4EC8254FF47A47741C3846A047F9
:106880006D1EFAD101E0087874DFBDE8F04102F036
:1068900073BEBDE8F0810000CC57002014D407007F
:1068A00070C2070038B5214C0021227AD20701D0EE
:1068B000084638BDE0601E4801F074F800200090E2
:1068C00001F0BEFE88B91B4813DF70B902F07EFEEE
:1068D00058B9684602F0D6FC38B96946012002F082
:1068E000DBFC10B9684602F025FD0028E1D102F07A
:1068F0003DF930B1104802F02DF9A06840F00200D7
:10690000A06000F0A7FD0028D3D10B481C30FFF792
:10691000DBFE0028CDD1FFF7FDFB0028C9D1A06820
:1069200040F00100A060002038BD0000CC570020DE
:1069300090C2070000400700DC5C002070B50446F0
:10694000011D00880022944D86B0212876D025DCD8
:10695000132874D013DC012872D0102863D01128BA
:106960004DD14FF6FF7068805C218C48FDF7C2FD69
:10697000F0B35C218948FDF7BDFD401C62E014289E
:106980007DD01A287CD01F2839D16888091D75DF71
:10699000002834D0814A4FF44C71F8E0512870D06F
:1069A0002FDC22282BD023286CD0242827D0502855
:1069B00025D17B4D34F8060FA98888421FD179482C
:1069C00000F0B6FF06001AD0628904F10C01FDF751
:1069D00057FD7449182274316846FDF751FD04963D
:1069E00001956089ADF81400684601F0B1FE00E041
:1069F00027E0002803D031466A4800F0BBFF06B00C
:106A000070BD52283CD0552840D05628F7D1A079E7
:106A10000028F4D11321688876DF0028EFD05F4A80
:106A20004FF45471B3E008886880E96809B1012027
:106A300088475C4968881A3975DFE0E76DE04EE009
:106A400075E056485749227A8C31CDE9001202464A
:106A50004FF42B7354A10020FEF7FCFE287A400768
:106A600007D4FFF757FB20B14C4A40F2B221FFF7A1
:106A700041FCE9680029C2D0022006B003E070E0C2
:106A80007BE05DE01FE0BDE870400847E188F72942
:106A900010D28807B0F1404F0DD0C91F89B2481EEF
:106AA000C21700EB927222F00302801A081A801DAE
:106AB00081B200E0F7216888B5DF00289FD0374A0F
:106AC0004FF4397163E000920192A0880022694678
:106AD00090DF002893D0314A40F2F3211AE0314888
:106AE0006A46303842F60521806A009002A801907B
:106AF0006888ADDF20B1294A4FF44371FFF7FAFBF4
:106B000000231A46852168887FDF002895D0234A14
:106B10004FF44571FFF7EEFB71E700920888694674
:106B20008FDF002889D01D4A40F24731F2E700216B
:106B3000688866DF0028EFD0184A40F2573126E017
:106B4000A0790028E8D02146154803F03FFD002831
:106B5000E2D006B004F10801BDE87040104802F030
:106B6000F7BF0024088822462346214686DF0028F6
:106B7000D2D00A4A40F27E3109E0002308881A4642
:106B80001946B1DF0028C7D0044A40F2893106B067
:106B9000BDE87040FFF7AEBBCC5700201CCD07000E
:106BA000F85C002090C207005B25733A256420281A
:106BB000257329205D20446973636F6E6E6563746D
:106BC00020526561736F6E3A20307825780A0D2067
:106BD0000A0D0000007800F00100704708B55C2144
:106BE0000FA0FDF787FC28B15C210DA0FDF782FC0A
:106BF000401C00E00AA01A4902460091732319A123
:106C00000020FEF727FEBFF34F8F20480168204A7F
:106C100001F4E06111430160BFF34F8F00BFFDE756
:106C20002E2E5C2E2E5C2E2E5C2E2E5C2E2E5C6369
:106C30006F6D706F6E656E74735C6C696272617299
:106C40006965735C626F6F746C6F616465725C6EB2
:106C500072665F626F6F746C6F616465722E630041
:106C60004DC007005B25733A256420282573292031
:106C70005D20526573657474696E6720626F6F740E
:106C80006C6F616465722E200A0D00000CED00E04F
:106C90000400FA052DE9FC410646C0074FF0000547
:106CA0000ED0104F00240122385D009500231146BC
:106CB000019502F07CFA641C042CF4D300F01CF85B
:106CC000B0070DD5074E0024361D0022305D03238A
:106CD00000951146019502F06AFA641C042CF4D365
:106CE000BDE8FC8126C007000249085C012102F0D2
:106CF00083BA000026C0070010B500242046FFF725
:106D0000F3FF641C042CF9D310BD10B543689C1824
:106D1000446021B905E013F8010B01F8010B521E84
:106D2000F9D2012010BD00000249CA6B4260096C13
:106D3000816070470C6F002040684968884201D824
:106D40000120704700207047F0B54FF0FF3622B1A8
:106D50001268D24300230A4D0DE03246FAE7C45CC4
:106D600062400824D70700D037462F4087EA5202F6
:106D7000641EF7D15B1C8B42F1D3D043F0BD000001
:106D80002083B8EDF0B5146906468DB0206815462D
:106D9000271DE0B1022920D00A2000906B4609AAE5
:106DA000304604F044F900280FD009A901A8009A40
:106DB00003F0A0FF01AE96E80F0005AE86E80F00D5
:106DC000236869683A4605A898470DB0F0BD0DB034
:106DD0003046BDE8F04004F001B86946304603F0A3
:106DE00093FF0028F1D0236869683A4668469847BF
:106DF0000028EAD002980028F5D10198706001209F
:106E0000E3E753685B7813F0C00303D0402B03D053
:106E10000020704700F002B8FFF7B4BF2DE9FF4132
:106E20000B465168064614464878334D00F00F0271
:106E300010F0300055F8225006D0102806D0202837
:106E400008D0302856D13EE022694DE0616901202A
:106E5000087047E0022B28D1042A26D84FF00108F9
:106E600069463046676903F04FFF00281AD009E0F1
:106E70000B79226913FB00226846A84770B1387865
:106E8000401C3870029820B1616838784A79904285
:106E9000EED301987060029860BB02E04FF00008EA
:106EA000F7E7404604B0BDE8F081D4E904300F793B
:106EB000027817FB023349798A421BD2521C0270B6
:106EC0001A46616810E008786169072A087009D1DC
:106ED000606801792069FDF7ECFA606821698068D3
:106EE00003F02DFF2269616804B03046AC46BDE86E
:106EF000F04160470020D5E734C9070038B50120CC
:106F000001F0D2F9174C002810D01748006810F093
:106F1000B10026D05C2115A0FDF7ECFA002816D0B0
:106F20005C2112A0FDF7E6FA401C11E05C210FA0E5
:106F3000FDF7E0FA28B15C210CA0FDF7DBFA421C5A
:106F400000E00AA240F2111318A1009405E007A086
:106F50004FF49373024622A100940020FEF77AFCBE
:106F6000012038BD71C007001C0500402E2E5C2E8C
:106F70002E5C2E2E5C2E2E5C2E2E5C636F6D706F41
:106F80006E656E74735C6C69627261726965735C64
:106F9000626F6F746C6F616465725C6E72665F6263
:106FA0006F6F746C6F616465722E63005B25733A5A
:106FB00025642028257329205D20444655206D6FC7
:106FC0006465206265636175736520617070206916
:106FD00073206E6F742076616C69642E200A0D0038
:106FE0005B25733A25642028257329205D204446BB
:106FF00055206D6F64652072657175657374656485
:10700000207669612047505245475245542E200A48
:107010000D0000004169002901D0C0680847704791
:10702000082808D2DFE800F0040707070704070470
:107030000120FFF72FBE704710B50446032806D085
:10704000042C04D0062C0ED0072C04D10BE00749E9
:10705000074800F011FD07480168002905D02046C7
:10706000BDE810400847FFF7B9FD10BDA176070045
:10707000C0D40100BC57002010B50446062802D138
:10708000002001F003FE04480168002903D02046D7
:10709000BDE81040084710BDC85700204FF0A04180
:1070A0004FF40060C1F80805012002F0F7BB4FF46F
:1070B000A07202EB810189B200F06EB90068D0F8CD
:1070C0000405704730B54379244C44F823204279B5
:1070D000231D03EBC20212790AB1082030BD0268F9
:1070E0000C88C2F8084590F904208978002A4FEAF4
:1070F000411104DB02F1E02282F8001405E002F005
:107100000F0202F1E02282F8141D90F9041001220E
:1071100000290BDB4FEA51154FEA850501F01F04EA
:1071200005F1E02502FA04F4C5F880420BDB01F01A
:107130001F044FEA51114FEA810101F1E02102FAE7
:1071400004F4C1F80041417903EBC1010A714179AE
:1071500043F831004FF0000030BD00002C580020F3
:1071600090F90400002809DB00F01F020121914082
:107170004009800000F1E020C0F8001270470A4684
:10718000022100F000B94FF4827100F005B90068E7
:1071900001210160704700680121416070470000D3
:1071A000F8B5054622F07F462A684FF480344FF444
:1071B000A0708C4000EB81001F4680B2C2F80843EB
:1071C0002A68C2F848432A680023135010580090D8
:1071D000286800EB8101D1F84005C1F840652968B5
:1071E000D1F80415401A20F07F40012803D10E4940
:1071F0004FF4046088472868C0F844432968D1F8F0
:107200000405301A20F07F40020201D540F07F4093
:107210007A42904203DD022801DC0D20F8BDC1F85E
:1072200004430020F8BD0000F1C507004FF0A04165
:107230004FF40060C1F80C05012002F02FBB70B5BF
:107240003224062004F096FE4FF4FA7508E000F0B0
:1072500049F9800701D5012070BD284602F01EFBC8
:107260002046641EF3D270BD2DE9FC4180461F46C6
:1072700015460E4600240D4800F04CFB38B1112095
:10728000BDE8FC8106EB043001F0C2FF641CAC4297
:10729000F8D1064800F03BFBCDE900573346002209
:1072A0000221404600F02AF80020E9E73858002083
:1072B0002DE9F843104D0F4680461E46914669461B
:1072C000286800F0F8FA040014D01C21FDF7F1F84A
:1072D00001202071C4F81490380BC4F80080C4E970
:1072E00002606946286800F007FB03F053FE0020A7
:1072F000BDE8F8830420FBE724C607002DE9F0432E
:1073000087B00446DDE90E8980681D4616460F46A3
:1073100000280BD018216846FDF7CBF802A88DF89D
:10732000007080E86003A1686846884707B0BDE840
:10733000F08330B50446006887B00D4680680028A9
:107340001FD018216846FDF7B4F80195A068059094
:10735000207910B1012810D107E001208DF800003C
:1073600020690290E068039005E002208DF800009B
:10737000E0680003029060690490206881686846B4
:10738000884707B030BD0368C3F84413002A02D011
:107390000068C0F80413704708B5006842582AB165
:1073A0000022425040580090012008BD002008BD36
:1073B0000B2803D30B38C0B200F00AB870470000A6
:1073C0000249002208780A7070470000E457002044
:1073D000014908700B207047E45700201FB50020BA
:1073E0000090019002900390062202A94FF40050F1
:1073F00004F026FD002002A90A5CFF2A00D01AB979
:10740000401CC0B20628F7D306281AD000206A46CE
:10741000C0F105031418401CCB5CC0B26370062891
:10742000F6D300BF9DF80100401C8DF801009DF8C7
:10743000000020F0FE008DF8000068466CDF04B00C
:1074400010BD68466DDFEDE7014901200870704707
:10745000C157002000B587B09DF8180020F00F003C
:10746000401C20F0F00010308DF8180004F0CCFC27
:10747000FFF7B4FF002820D11348007A80071AD400
:1074800017226946002004F0DBFC0D2269460F48F4
:10749000FCF7F6FF05220EA10DF10D00FDF714F823
:1074A00018B90A490878AA2809D007220AA106A80B
:1074B0007CDF002801D10A487ADF07B000BD4A7896
:1074C00006A8891C7CDFF4E7CC570020CF5C0020A5
:1074D00043303033530000004466755461726700D6
:1074E00076C2070010B50524FFF7A0FE204604F081
:1074F00003FBFF2004F000FB0446FFF7CFFD20460E
:1075000010BD00002DE9FF5F0746DFF810A1984687
:1075100015460E46B94218D15C214148FCF7EAFFF6
:1075200028B15C213E48FCF7E5FF421C00E03C4AE4
:10753000CDF800A050233BA10020CDE90167FEF764
:1075400089F9002004B0BDE8F09FF01B040B05F69C
:10755000FF704FF0000B4FEA103900F051FD40462C
:10756000A04500D20446A04654E04146C14502D899
:10757000CB462C4601E08B460C0300225946384688
:1075800000F0CCFF0028DDD15C212548FCF7B2FFDC
:1075900028B15C212248FCF7ADFF401C00E02048E8
:1075A000CDE90274CDE900A6024679232DA1002081
:1075B000FEF750F9601E00F00300221A0023314646
:1075C0003846D21C00F0C0FF0028BBD13248A9EBDE
:1075D0000B092D1B016B2744214401632644002025
:1075E00001F020FB5FEA000B14D05C210C48FCF793
:1075F00081FF28B15C210A48FCF77CFF401C00E0B9
:1076000007488D23024625490020CDF800A0FEF74B
:1076100021F901E0002DA8D1584693E7C0C007002A
:10762000CCCC07005B25733A2564202825732920DC
:107630005D204E6F20636F7079206E6565646564B0
:10764000207372635F616464723A20307825782C0D
:10765000206473745F616464723A20307825782006
:107660000A0D00005B25733A256420282573292024
:107670005D20436F7079696E6720307825782074BB
:107680006F20307825782C2073697A653A2030781D
:107690002578200A0D0000000C6F002024CB070085
:1076A00008B55C2109A0FCF725FF28B15C2107A0E3
:1076B000FCF720FF421C00E004A214480090822343
:1076C00013A10020FEF7C6F8FFF788FA2E2E5C2ED5
:1076D0002E5C2E2E5C2E2E5C2E2E5C636F6D706FDA
:1076E0006E656E74735C6C69627261726965735CFD
:1076F000626F6F746C6F616465725C6E72665F62FC
:107700006F6F746C6F616465722E63005EC00700FA
:107710005B25733A25642028257329205D20496E56
:1077200061637469766974792074696D656F7574C5
:107730002E200A0D00000000014941600020704722
:10774000F8C5070010B50B4941600B4800F0E2F89E
:1077500068B901F089FF08491C234FF4EE720874E0
:107760000448A1F5EE71001F006800F091F80020B8
:1077700010BD000028C60700F87500200248006808
:10778000002800D001207047385800200248007AB5
:10779000002800D001207047F875002070B505461C
:1077A00008680C464A6886682846314603F0E8F9BE
:1077B0006068286104F10C00686170780221B1EB07
:1077C000901F01D1241D2C6170BD000010B5002256
:1077D0004FF48051104600F057F910B112A29521D4
:1077E00015E015480022C0F5FC2100F04DF910B15C
:1077F0000DA297210BE0114B9C2211A10020FEF756
:1078000029F8174800F0E8FA18B107A29F21FEF7FF
:1078100071FD00F0DFF8094BA72212A10020FEF74E
:1078200019F8002010BD00002E2E5C2E2E5C6D611C
:10783000696E2E630000000000400700CCBF070007
:107840005B25733A25642028257329205D20496E25
:1078500073696465206D61696E200A0D0000000087
:10786000217007005B25733A2564202825732920A1
:107870005D204166746572206D61696E200A0D009D
:1078800010B5FCF716FD08B1002010BD112010BD89
:1078900010B531B1B2FBF3F403FB14241CB1092081
:1078A00010BD0E2010BD0160002141608160828109
:1078B000C381084610BD70B50C460546FCF7AEFC0A
:1078C000002802D021882868084470BD10B50A88B5
:1078D00049888A4203D1FCF7E3FC012010BD002057
:1078E00010BD70B50C460546FCF7BDFC002802D063
:1078F00061882868084470BD10B50A8849888A42A2
:1079000003D1FCF7A7FC012010BD002010BD002111
:1079100000F003B8012100F006B808B56A46FCF78C
:10792000FAFC009808BD08B56A46FCF7E7FC08BDFC
:1079300038B5044600258DF800506846FEF7C4FDB2
:1079400021686268086890420ED9401E086001787C
:10795000238AE26801FB0325227A2168101AC0B24B
:107960000A79824200D208719DF80000FEF7D0FD2E
:10797000284638BD38B5054600208DF800000C4675
:107980006846FEF7A1FDE868298A201AB0FBF1F1EC
:107990002A681068431C136001709DF80000FEF710
:1079A000B7FD38BD10B530B1017A42680368891A55
:1079B000C9B21A6006E00E2010BD03681A68541C94
:1079C0001C601170491EC9B2F7D200680021017114
:1079D000084610BD10B54FF0E0224FF0FF314FF4D4
:1079E0008054C2F88011C2F88012C2F88411C2F823
:1079F000841200F031FE2046BDE81040AFF3008055
:107A000070B505461A4888B0C0F5FE21002200F086
:107A10003BF8EFF30580D5E90045C005C00D4FF0F8
:107A2000FF364FF0000181F3148881F3108881F351
:107A3000118881F3138812D020220E496846FCF782
:107A40001FFD203C2022694620460695FCF718FDC4
:107A5000B21F31462046FCF7DDFB08B070BD08B010
:107A60002A4631462046BDE87040FCF7D3BB0000F3
:107A70000040070098C007000A4601460148006818
:107A800004F072B9B8C00700F0B50A0502D1B0F52C
:107A9000FE2F01D90720F0BD134D000B491E124FD8
:107AA00001222E1D103700EB113407F1040C17E0F2
:107AB0004309C3F1000100EB411E02FA0EF106D0AA
:107AC000012B06D0022B06D0032B08D105E029603C
:107AD00005E0316003E0396001E0CCF80010401CA3
:107AE000A042E5D90020F0BD00060040FEB5734E6F
:107AF00000275C217248FCF7FDFC28B15C2170482E
:107B0000FCF7F8FC401C00E06D486E4C024640F269
:107B10007D136DA100200094FDF79CFEB068012844
:107B200012D0A52826D0AA283BD0AC2864484FF014
:107B30005C014DD0FCF7DEFC00286BD05C21604876
:107B4000FCF7D8FC421C66E05C215D48FCF7D2FCE7
:107B500028B15C215A48FCF7CDFC421C00E0584A91
:107B60004FF4C17365A100200094FDF773FEFEF78A
:107B7000EBFA2BE05C215248FCF7BCFC28B15C21FD
:107B80004F48FCF7B7FC401C00E04D484FF4C3736E
:107B9000024661A100200094FDF75CFE03F024FB87
:107BA0002AE05C214648FCF7A5FC28B15C2144484A
:107BB000FCF7A0FC421C00E0414A40F28B135DA19F
:107BC00000200094FDF746FEFEF7BCFC054615E0DC
:107BD000FCF790FC28B15C213948FCF78BFC401C79
:107BE00000E0374840F28F13024659A1002000946C
:107BF000FDF730FE03F00AFC0546012705B35C21C2
:107C00002F48FCF777FC78B15C212D48FCF772FC1B
:107C1000401C0AE02A4A40F2951355A10020009426
:107C2000FDF718FE0020FEBD2548B1680094CDE99F
:107C30000151024640F29B1358490020FDF70AFE0D
:107C4000304600F06FFB564900200870554800F0A0
:107C5000E9FF50B15C211A48FCF74CFC08B35C21E9
:107C60001748FCF747FC401C1CE001251FB301200E
:107C700000F01AFBF8B15C211148FCF73BFC28B17D
:107C80005C210F48FCF736FC401C00E00C4840F239
:107C9000AD130246444900200094FDF7DBFD0225A8
:107CA00009E0074840F2B313024640A100200094C7
:107CB000FDF7D0FD03252846FEBD0000306F0020F3
:107CC000CCCC0700FFC007005B25733A2564202851
:107CD000257329205D20456E746572206E72665F83
:107CE000626F6F746C6F616465725F66775F61630A
:107CF000746976617465200A0D0000005B25733A93
:107D000025642028257329205D2056616C69642034
:107D1000417070200A0D00005B25733A256420280D
:107D2000257329205D2056616C6964205344200A24
:107D30000D0000005B25733A256420282573292057
:107D40005D2056616C696420424C200A0D000000E1
:107D50005B25733A25642028257329205D20566110
:107D60006C6964205344202B20424C200A0D0000F3
:107D70005B25733A25642028257329205D204E6FEA
:107D8000206669726D7761726520746F206163741B
:107D900069766174652E200A0D00000098CA0700FC
:107DA000C1570020497407005CCC07005B25733A7B
:107DB00025642028257329205D20436F756C64207D
:107DC0006E6F742077726974652073657474696E60
:107DD00067732E200A0D000038B505465C2144A0CB
:107DE000FCF788FB28B15C2141A0FCF783FB401C19
:107DF00000E03FA04E4C024640F237134DA1002058
:107E00000094FDF727FD55480560002000F0E2FED4
:107E1000002854D1FFF76AFE20B1012827D002289C
:107E20004DD104E04E4DFFF769F810B944E042F23D
:107E3000107500F0E5F84B4A20211820FEF7DAFA19
:107E400018B149A2A421FEF755FA5748016811F06C
:107E5000B10F03D0016801F04E01016052490120C9
:107E6000091D086000F092FB002828D101E0FEF710
:107E7000B5FE4E492846FFF7FFFD4D4800F070FB68
:107E800000281CD15C211AA0FCF734FB28B15C212E
:107E900017A0FCF72FFB401C00E015A002464FF492
:107EA000BF7344A100200094FDF7D4FC00F096F8C5
:107EB000FEF780FA41DFF9E700F032FE08B1032057
:107EC00038BDFFF787FD5C2109A0FCF713FB28B143
:107ED0005C2107A0FCF70EFB421C00E004A24FF45B
:107EE000C6733D4900200094FDF7B4FCE7E70000AD
:107EF0002E2E5C2E2E5C2E2E5C2E2E5C2E2E5C6387
:107F00006F6D706F6E656E74735C6C6962726172B6
:107F10006965735C626F6F746C6F616465725C6ECF
:107F200072665F626F6F746C6F616465722E63005E
:107F300081C007005B25733A25642028257329201A
:107F40005D20496E206E72665F626F6F746C6F6148
:107F50006465725F696E6974200A0D00BC57002069
:107F6000C0D40100605800202E2E5C2E2E5C2E2ED8
:107F70005C2E2E5C2E2E5C636F6D706F6E656E7462
:107F8000735C6C69627261726965735C626F6F7455
:107F90006C6F616465725C6E72665F626F6F746C49
:107FA0006F616465722E63001C050040A1760700B6
:107FB000397007005B25733A256420282573292032
:107FC0005D20456E746572206D61696E206C6F6F07
:107FD00070200A0D0000000000CA070010B501F073
:107FE00055FC002803D0BDE8104003F04DBF10BD84
:107FF0000A4601460148406803F0B6BEB8C0070013
:1080000070B5154D2878002825D101F03FFC0126D8
:1080100000B312480068400900EB4000840842F2B7
:108020001070844201D2012000E00020687003F04B
:108030002BFF687820B9094808300068C00703D0D2
:1080400007492046FFF7D4FF4FF0E0214FF480307E
:10805000C1F800012E7070BDC25700200405014018
:10806000C5BE070040688068004770B50D460446ED
:108070004668FFF7F7FFB279294604F10800FCF7DC
:10808000FFF9002070BDF8B51E4617460C4608469D
:10809000069DFFF7E7FF00902B463246394604F174
:1080A0000800FCF7D7FB08B10020F8BD48F24250A9
:1080B000F8BD000070B516460C46054600F0D0F835
:1080C00000280ED1AA791946304600F0D6F80028CB
:1080D00007D131462046FFF7C8FF002801D10149EA
:1080E000216070BD7052464D2DE9F84F6C460D462B
:1080F000D4E90A688246994617461049284600F096
:10810000A3F80028A54613D168684146407942008B
:10811000304600F0B2F80028A54609D157B182B028
:108120004B463A46294650460096FFF7ACFFA54617
:10813000BDE8F88F48F21050A546F9E77052464D59
:108140002DE9F0411D46DDE906871646044600F09C
:108150002DF800280DD12A463146204600F03CF883
:10816000002806D13A4641462046BDE8F04100F0DD
:1081700002B8BDE8F08170B515460E46044603F01E
:1081800033FE002807D13EB160682968C268914279
:1081900005D248F2145070BD48F2135070BD836888
:1081A0002A4631462046BDE87040184710B550B108
:1081B00061B14160096804468847002802D105483A
:1081C0002060002010BD48F2015010BD48F2105050
:1081D00010BD00006E52464870B515460E46044666
:1081E00003F002FE00280BD146B155B160682A4663
:1081F000314643682046BDE87040184748F21050A9
:1082000070BD002070BD00002DE9F0410B480C4D01
:108210000C4F401BC60801203870002406E000BF48
:1082200055F834008047002805D1641CB442F7D3C8
:10823000022038700020BDE8F0810000000000003E
:1082400000000000C457002028B10068884205D013
:1082500048F24050704748F2105070470020704775
:1082600028B139B10022C1E900201046704748F218
:108270001050704748F21350704720B1914205D01A
:1082800048F21150704748F2105070470020704774
:1082900070B5040006D04FF47A75284601F0FEFA56
:1082A000641EFAD170BD000010B50A4C216A012984
:1082B0000BD160B1E06950B100F010F80022A16963
:1082C000FEF742FDE169814201D0002010BD01208E
:1082D00010BD00000C6F0020AFF300804FF4405041
:1082E000074A4168914207D18068411EC1F30B01E2
:1082F000401A00F6FF7070474FF48050704700003E
:10830000DBE5B15100B5FFF7E9FF054989690A18B6
:10831000401E0844C0F30B00101A00F6FF7000BDA9
:108320000C6F002000210160416081600148016301
:10833000704700000C6F00202DE9F0439946274C50
:10834000274F90460E460546002301215BB1012BC5
:1083500012D0022B1FD00020381AA0F54050A8429E
:108360001CD201221BE0FFF7CDFFB8F1000F10D0A7
:10837000216A0129F0D00CE0FFF7B0FFB9F1000F3E
:1083800005D14FF44051174A4968914201D001216B
:10839000E2E70021E0E74FF48050DDE7002242EA07
:1083A0000600884305D0022B03D25B1CDBB2022BF4
:1083B000CBD912B10420BDE8F0831BB107481830B7
:1083C000FFF7B0FF002020610120606103482430E6
:1083D000FFF7A8FF00206562EDE700000C6F0020AA
:1083E00000400700DBE5B15138B50278092A30D2E8
:1083F000DFE802F02F052F09272F2B2F2300BDE8E0
:10840000384001F053BA0C465C211248FCF772F870
:1084100028B15C210F48FCF76DF8421C00E00D4AC2
:108420000D4800904FF4A3730CA10020FDF712FA41
:108430002046BDE83840FEF777BCBDE8384001F083
:1084400039BBBDE8384001F079BABDE8384001F0E9
:10845000F1BA38BD0CCF0700A0C407005B25733A02
:1084600025642028257329205D2048616E646C6591
:10847000204E52465F4446555F4F505F4352435F24
:108480004745542028636F6D6D616E6429200A0D85
:1084900000000000FEB50D4601780126092933D2FF
:1084A000DFE801F03205320D2A322F320900294669
:1084B00001F082FB28E0294601F0CAFE24E05C219D
:1084C0001248FCF717F828B15C211048FCF712F8A5
:1084D000421C00E00D4A0E4C0E48A36C216D8DE845
:1084E0000B0040F209230C490020FDF7B3F9A06C02
:1084F000A860206D686007E0294601F0CFFC0646C1
:1085000002E0294601F02CFE3046FEBD0CCF0700EC
:108510000C6F002007C50700C4CE070013460A46AB
:108520000146014800F064BD4C58002008B10349E1
:1085300000E003490022034800F070BD34C6070084
:1085400004C607004C58002008B5009313460A469D
:108550000146024800F0FAFD08BD00004C5800201A
:10856000084910B508600020FEF786FD064800F0B7
:10857000A7FB002804D1BDE81040034800F0C6B8AE
:1085800010BD0000C85700207970070008B55C21B5
:1085900009A0FBF7AFFF28B15C2107A0FBF7AAFFFA
:1085A000421C00E004A2144800906C2313A1002098
:1085B000FDF750F9002008BD2E2E5C2E2E5C2E2ECD
:1085C0005C2E2E5C2E2E5C636F6D706F6E656E740C
:1085D000735C6C69627261726965735C626F6F74FF
:1085E0006C6F616465725C6E72665F626F6F746CF3
:1085F0006F616465722E63003BC007005B25733AB0
:1086000025642028257329205D20696E2077656107
:108610006B206E72665F6466755F696E69745F7504
:10862000736572200A0D00001FB58908002201AB96
:10863000009283E80700684618DF04B010BD000010
:108640001FB5044B0FCB8DE80F00684618DF04B050
:1086500010BD00009CC307004FF480504104086027
:1086600000207047F8B50E460178184C062901D055
:10867000012901D1017C21702178012501290CD02B
:1086800002290ED05C211248FBF734FF70B15C2147
:108690000F48FBF72FFF401C09E03146FFF7A4FE0F
:1086A00012E03146FFF7F6FE05460DE0084809499D
:1086B0000246009140F2BD2307A10020FDF7CAF851
:1086C00000202070052070702846F8BDE857002073
:1086D0000CCF070078C507005B25733A2564202876
:1086E000257329205D20496E76616C6964206F6274
:1086F0006A656374207479706520696E2072657193
:10870000756573742E200A0D0000000010B504007A
:1087100011D00120FFF70AFF00280BD100F0EAFA80
:1087200000F0C6FB48B10949081F00F047FB0128CB
:1087300003D0032010BD072010BD04480838C460D2
:108740000020FEF745FE002010BD0000F05700207D
:1087500038B5816881B10F4A1821FDF7DBFD0400AF
:1087600015D05C210C48FBF7C5FE38B15C210A48E6
:10877000FBF7C0FE421C02E0072038BD064A07484E
:1087800000904FF44B7306A10020FDF763F82046DC
:1087900038BD0000D18707000CCF0700C0C5070017
:1087A0005B25733A25642028257329205D205363B7
:1087B000686564756C65722072616E206F757420D7
:1087C0006F6620737061636521200A0D0000000050
:1087D000AFF3008070B588B004461822624902A841
:1087E000FBF74EFE20788DF808005F4E20785F4D35
:1087F000213E0D287BD2DFE800F007734073737AC7
:10880000735573271D2259005C215948FBF772FEEE
:1088100028B15C215648FBF76DFE401C00E054482F
:108820005449024600916F2353A10020FDF712F82E
:1088300001201FE002A9204601F082FE70E002A99B
:10884000204601F0A7FD6BE05C214948FBF752FE92
:1088500028B15C214648FBF74DFE401C00E044482F
:108860004449024648310091CE2350A10020FCF734
:10887000F1FF207C8DF80C0052E05C213C48FBF7B6
:1088800039FE28B15C213A48FBF734FE421C00E077
:10889000374A3848DE23583000904EA10020FCF7BC
:1088A000D9FF3DE0208AADF80C0039E05C2130486A
:1088B000FBF720FE28B15C212D48FBF71BFE401C76
:1088C00000E02B482B4902466B310091E6234FA173
:1088D0000020FCF7BFFFE9680720884720E006E09A
:1088E00002A92046FFF7BEFED0B908B070BD5C21DA
:1088F0001F48FBF7FFFD28B15C211D48FBF7FAFD7F
:10890000401C00E01A4821780246CDE9006140F29F
:10891000063349A10020FCF79DFF02208DF80900D5
:108920005C211348FBF7E6FD28B15C211048FBF7FA
:10893000E1FD401C00E00E489DF809100246CDE91B
:10894000006140F20D3348A10020FCF783FFD4E919
:10895000011202A890479DF809000128C5D0E968D6
:1089600005208847C1E70000A8C50700E857002098
:108970000CCF0700BCC307005B25733A2564202891
:10898000257329205D2048616E646C65204E524637
:108990005F4446555F4F505F50524F544F434F4CCA
:1089A0005F56455253494F4E200A0D005B25733ADE
:1089B00025642028257329205D2048616E646C653C
:1089C000204E52465F4446555F4F505F50494E47D8
:1089D000200A0D005B25733A256420282573292081
:1089E0005D2048616E646C65204E52465F4446557A
:1089F0005F4F505F524543454950545F4E4F544975
:108A0000465F534554200A0D000000005B25733A71
:108A100025642028257329205D2048616E646C65DB
:108A2000204E52465F4446555F4F505F41424F5281
:108A300054200A0D000000005B25733A25642028AD
:108A4000257329205D20496E76616C6964206F7002
:108A5000636F64652072656365697665643A20308A
:108A60007825782E200A0D005B25733A256420288E
:108A7000257329205D2052657175657374206861C6
:108A80006E646C696E6720636F6D706C6574652EC3
:108A900020526573756C743A2030782578200A0D61
:108AA0000000000038B1054901600549416001211D
:108AB0000172002070470E2070470000C58A070031
:108AC000FD8A070010B50C0001464FF0110007D0D9
:108AD0002278052A05D2DFE802F00F050D0F0F00FE
:108AE0000E2010BD084600F051F80028F9D10221EF
:108AF000217010BD112010BD082010BD02460820B5
:108B000041B10B78022B04D1022A05D0032A00D1EF
:108B1000112070470E207047002003220A70704712
:108B200070B50B480024D0F85C11491C03D1D0F873
:108B30009C01401C09D04FF4FE25284600F068FB3C
:108B400057220349284600F07BFB204670BD0000F9
:108B50000C6F002010B528B11C220349FBF790FCD4
:108B6000002010BD0E2010BD9CF1070010B5064C72
:108B700000221821201DFEF7E7F82168814201D16B
:108B8000012010BD002010BD9CF1070070B50C4DF8
:108B90000400D5F89C0105F5CE7503D0401C03D028
:108BA000082070BD0E2070BD00221821201DFEF788
:108BB000CBF8206007222146284629DF70BD00003F
:108BC00000F00700002258210148FEF7BDB8000060
:108BD000106F002070B5FFF7A9FCE0B94FF4DC7509
:108BE0002A460E490E48FBF74BFC0D4C2068401CF2
:108BF00006D0FFF7E7FF2168814201D1002070BD58
:108C000029460748FBF755FC01206060002000F072
:108C100009F80028F3D0032070BD000000F0070021
:108C20000C6F002070B504464FF4DC752A461249DB
:108C30001248FBF749FC30B1002201210E48FFF732
:108C40006DFCB0B904E00CB10020A047002070BD5D
:108C5000FFF7B8FF09492A460860A1F5DC70FBF769
:108C60000FFC23462A4606490348FFF76DFC0028FF
:108C7000EDD0032070BD000000F007000C6F002055
:108C8000546D00204FF48050704700002DE9F041F2
:108C900007460948094D401BC6080020044607E066
:108CA00005EBC400416838468847002802D1641C9F
:108CB000B442F5D3BDE8F0811CD4070014D40700FA
:108CC0002DE9F04107460948094D401BC608002020
:108CD000044606E055F8341038468847002802D18B
:108CE000641CB442F6D3BDE8F08100001CD4070038
:108CF00014D4070070B50B4C0B4DA06B30B102F0D3
:108D00000FFF18B1606A08B1012000E00020287050
:108D1000FFF77AFABDE870404023044A0449054849
:108D2000FFF7C8B90C6F0020F85700208CBF070070
:108D3000D072002034C107002DE9F0410F4C0746E6
:108D40000D46E06BA26B01264119914201D9032621
:108D500010E00A492A465C3108443946FBF790FB8B
:108D6000E06B064A2844E063403229463846FDF766
:108D7000EBFF20643046BDE8F08100000C6F00205E
:108D800070B505004FF0010404D0B5F5807F03D91C
:108D900004240CE003240AE006490020064E087073
:108DA0002021306306F13800FBF783FBB5632046D2
:108DB00070BD0000F85700200C6F00202DE9F04135
:108DC000374C0E460746D4E90E010125814201D0F9
:108DD000082561E0DFF8CC8098F8000028B1FFF7A3
:108DE00091FA3860606A306056E002F099FE98B3FC
:108DF0002D4890F89C1009B9017869B3041D002131
:108E00003960316090F89C300A462BB1264C90F8BE
:108E10003811A03404F1990294F8590002F07CFD55
:108E20000546012838D1201D00F0A4F80546012888
:108E300032D1012388F800300F2594F85910002012
:108E400019B994F86820012A07D0CA0708D094F805
:108E50005A20012A03D003E01DE0E06E0DE0E06D32
:108E600089070AD594F86010012906D10F4A616E6E
:108E7000C2F5FC22914208D8084468B100210125BE
:108E80000A463060FFF758FA08B1042504E0FFF7FE
:108E900039FA386000E005252846BDE8F081000079
:108EA0000C6F0020F8570020C87000200040070019
:108EB0000148007870470000F85700202DE9FE4374
:108EC00006462848274D884690F89C00012708B19F
:108ED000A43500E0083520200B46029002A9224864
:108EE000CDE9000132462149A0F59870FFF728F935
:108EF0001F4C4FF0000930B9202205F16F011A48CC
:108F0000FBF7E2FA08B1172717E095F8550048B1CA
:108F100000F00101C0F340023346284601F08CFF07
:108F200050B105E00120C4F82090E0626868A060BC
:108F3000A06CC4E9098004E005270D482430FFF740
:108F4000F1F90B4820213830FBF7B3FA0848FF222B
:108F5000F4215C30FBF7A6FAC4F830903846A664DA
:108F6000BDE8FE83C8700020787300201CC1070094
:108F70000C6F002070B5044690F85400012578B3BA
:108F800094F8550028B1012803D0022801D0032805
:108F900029D194F86D00032801D0142524E0207A0B
:108FA000F0B1E068342801D011251DE0204602F020
:108FB000EDFA70B12078002894F8550011D00B49D3
:108FC00048B1012807D06068C96888420CD81025CC
:108FD0000AE0122508E060688968884204D2F6E752
:108FE00001E0012800D00F25284670BD0C6F00203D
:108FF0002DE9F0410446406815461E4602680F46BA
:109000006A432046FDF743F8206833462A46D0F8E5
:1090100010C039462046BDE8F041604701600B684A
:10902000114618472DE9F04128B1016819B1C96905
:10903000BDE8F04108470D4D0D480024461B14279C
:109040000DE000BF04EB840005EB8000016829B14E
:10905000C969884710B10120BDE8F081641CB6FBE6
:10906000F7F0A042EED80020F6E700004C580020B0
:1090700060580020044801214174007A08B10020A2
:109080007047012070470000F8750020012801D0CA
:10909000032808D10449002201284A7400D0002086
:1090A000087401F029BF7047F875002070B50146BB
:1090B000022801D0032943D1224C207A00283FD036
:1090C000012831D002282FD11F480023022900682F
:1090D00002D0032928D119E0E360027912B1012AF4
:1090E00022D10BE0D0E90565721B142A00D31422AB
:1090F0002A4482614569AA420ED015E00169491CE3
:109100000161426991420FD1237213E0E268521C5F
:10911000E260082A08D9E360237202290AD00D21EF
:10912000FEF707F901F0DEFE607C28B1BDE8704073
:1091300000F0A0BA0021F3E7BDE8704001F0DCBE0A
:1091400070BD0000F87500203C5800202DE9F84360
:1091500004461D4616460F460846DDF82080FCF7FB
:1091600090FF3046FCF78DFF2A4639462046FCF733
:109170008EFFCDF8008020682B463246D0F80CC018
:1091800039462046E047BDE8F88370B541EA420120
:10919000DDE904564FF0A04441EA830141EA05218C
:1091A00004EB800041EA0641C0F8001770BD70B5BD
:1091B00041EA4201DDE904564FF0A04441EA83014F
:1091C00041EA052104EB800041EA0641C0F800179E
:1091D00070BD1CB500220B46009211460192FFF7AC
:1091E000D4FF1CBD1CB5002100910B46012201914A
:1091F0001146FFF7CAFF1CBD01224FF0A043824079
:1092000011B1C3F808257047C3F80C25704700005A
:10921000094902220A60BFF36F8FBFF34F8F0A1D07
:10922000106006480268002AFCD000200860BFF3E6
:109230006F8FBFF34F8F704704E5014000E401409A
:1092400070B50E4C01232360BFF36F8FBFF34F8FB8
:1092500000230B4D08E000BF51F8236040F8236065
:109260002E68002EFCD05B1C9342F5D300202060BA
:10927000BFF36F8FBFF34F8F70BD000004E5014057
:1092800000E4014020B103490968016000207047F3
:109290000E20704708C90700FEB506460D46084671
:1092A000FFF7F0FF002844D1002400940194012727
:1092B00006208DF80060ADF8040002948DF802706D
:1092C000694620202A6869DF00948DF801708DF8C6
:1092D0000240019402948DF80340694640202A68B8
:1092E00069DF00948DF80060F720ADF8020001946A
:1092F0000294694623202A6869DF0094019402944D
:109300008DF80070694601202A6869DF4FF4B0606B
:109310000090019402946946A1202A6869DF0094B4
:10932000019402948DF800406946A0202A6869DF04
:109330000020FEBD70B50446056860DF0646206863
:10934000A8420FD919A10020FCF784FA2A4623A1CC
:1093500000202368FCF77EFA01F02EFE2168421AF5
:109360002BA110E02A4635A10020FCF773FA2268F1
:10937000AA420BD036A10020FCF76CFA01F01CFECB
:109380002168421A3DA10020FCF764FA4EB1304634
:1093900000F02CFA024646A10020FCF75BFA3046AA
:1093A00070BD4B4901200870F9E70000496E7375E4
:1093B0006666696369656E742052414D20616C6C0C
:1093C0006F636174656420666F72207468652053F2
:1093D0006F66744465766963652E00004368616E4C
:1093E0006765207468652052414D20737461727402
:1093F000206C6F636174696F6E2066726F6D2030D0
:1094000078257820746F20307825782E00000000B1
:109410004D6178696D756D2052414D2073697A6593
:1094200020666F72206170706C69636174696F6E21
:1094300020697320307825782E00000052414D209D
:109440007374617274732061742030782578000021
:1094500052414D207374617274206C6F6361746942
:109460006F6E2063616E2062652061646A7573743B
:10947000656420746F20307825782E0052414D208D
:1094800073697A6520666F72206170706C696361C0
:1094900074696F6E2063616E2062652061646A7515
:1094A0007374656420746F20307825782E00000076
:1094B00073645F626C655F656E61626C652829200C
:1094C00072657475726E65642025732E000000004D
:1094D0004758002030B51748ADF5017D00780028C9
:1094E00025D04FF4FA7400BFADF8004280A9684659
:1094F00061DF50B105281AD00DF5017D0EA2BDE83F
:10950000304040F23B11FCF7F5BE6D4619497DA88D
:1095100000F0FCF807E000BFD0E9002128469047A2
:109520007DA800F00AF97F980028DDD0F4E70DF55A
:10953000017D30BD475800202E2E5C2E2E5C2E2E35
:109540005C2E2E5C2E2E5C636F6D706F6E656E747C
:10955000735C736F66746465766963655C636F6D75
:109560006D6F6E5C6E72665F7364685F626C652EB1
:10957000630000000CC90700F8B5134C2078C0B197
:109580000120A07002F028F8112814D0022002F067
:109590003BF800258DF800506846FCF795FF11DF79
:1095A000064625709DF80000FCF7B2FF2EB130464C
:1095B000F8BD0820F8BD0020F8BDA57002F0E8F95C
:1095C000032002F021F8F6E7445800207CB51A4C3D
:1095D000207808B108207CBD0120A070002001F097
:1095E000FBFF112819D0002002F00EF813480026C6
:1095F000006801908DF800606846FCF765FF10492F
:1096000001A810DF05000AD0002020709DF800009E
:10961000FCF77EFF2DB128467CBD00207CBD0120DB
:10962000F3E7A670667002F0A5FA02F0EFF90120E8
:1096300001F0EAFFF1E7000044580020A0C807004D
:10964000D56207000EB50749684600F05FF805E0EF
:10965000D0E900108847684600F06FF802980028AB
:10966000F6D10EBDBCC80700014800787047000065
:10967000445800200548817819B1007818B1FFF7E7
:109680007BBF08207047FFF7A1BF000044580020AF
:109690001FB568464BDF40B1052816D004B00BA2B9
:1096A000BDE810406B21FCF725BE174901A800F06A
:1096B0002DF806E0D0E900210098904701A800F0BD
:1096C0003CF803980028E4D0F4E71FBD2E2E5C2E52
:1096D0002E5C2E2E5C2E2E5C2E2E5C636F6D706FBA
:1096E0006E656E74735C736F6674646576696365CA
:1096F0005C636F6D6D6F6E5C6E72665F7364685FE6
:10970000736F632E6300000028C9070001600968B9
:109710004160AFF3008010B5D0E900215368994251
:1097200001D1002104E0D1E90034A34202D019465E
:10973000816010BD08314160F0E7816800290BD0DD
:10974000026892680A44826041684B689A4203D179
:1097500008314160FFF7DFBF704770B50D46064620
:10976000446804E0B2682946904718B1246820682C
:109770000028F7D120682860256070BD0068704718
:1097800040680068704741680868002801D0026896
:109790000A60704702460020526806E08B4203D1FF
:1097A00008681060012070471A461368002BF5D135
:1097B000704700000C4A10B502F594730EE0991A38
:1097C000C91001EBD171491002EBC1010C68844250
:1097D00001D90B4602E005D201F108029A42EED30C
:1097E000002010BD486810BD68C6070000B5FFF72F
:1097F000E1FF002800D1014800BD000054C6070069
:109800002DE9F04104461348134BC01A0C21B0FB5C
:10981000F1F6A0694FF0FF3110F8022C02B921696E
:10982000002011E000EB400503EB85052F6897420F
:1098300009D14F1C02D06F688F4204D194E80F0009
:10984000AD68A84703E0401CB042EBD30120206084
:10985000BDE8F08158D407004CD4070010B5144679
:1098600012680830202A02D248F2145010BD01229A
:1098700001F0E0FE0028F9D120202060002010BD7A
:10988000083001F05FBF083002F01CB802480068E1
:10989000002800D00120704700040140002802D0B9
:1098A000014980010847704721C0070038B50C46C0
:1098B00005465C210F48FAF71DFE28B15C210D48D2
:1098C000FAF718FE401C00E00A480B4902460091D6
:1098D0004FF4837309A10020FBF7BCFF1649032056
:1098E000C96888476869FFF74BFAFDF761FD60704A
:1098F00038BD00000CCF070052C407005B25733A47
:1099000025642028257329205D2048616E646C65DC
:10991000204E52465F4446555F4F505F4F424A4586
:1099200043545F4352454154452028636F6D6D6138
:109930006E6429200A0D0000E857002038B50C4657
:109940005C211C48FAF7D6FD28B15C211948FAF7CA
:10995000D1FD401C00E01748174D02464FF49773A5
:1099600016A100200095FBF775FF2349081FFFF79C
:1099700025FAFDF71DFD6070012805D10020FFF7D5
:1099800051F910B10A20607038BD5C210948FAF71E
:10999000B1FD28B15C210748FAF7ACFD401C00E09E
:1099A000044840F23913024614A100200095FBF749
:1099B00051FF38BD0CCF070085C407005B25733A03
:1099C00025642028257329205D2048616E646C651C
:1099D000204E52465F4446555F4F505F4F424A45C6
:1099E00043545F455845435554452028636F6D6D7A
:1099F000616E6429200A0D00F05700205B25733A40
:109A000025642028257329205D2057726974696EAA
:109A1000672076616C696420696E697420636F6D7C
:109A20006D616E6420746F20666C6173682E200A0D
:109A30000D00000038B50C465C210D48FAF75AFDC0
:109A400028B15C210A48FAF755FD421C00E0084A9B
:109A500008480090FA2308A10020FBF7FBFE4FF412
:109A60008070E0602046BDE83840FDF75DB9000039
:109A70000CCF070038C407005B25733A2564202803
:109A8000257329205D2048616E646C65204E524626
:109A90005F4446555F4F505F4F424A4543545F53C2
:109AA000454C4543542028636F6D6D616E642920D9
:109AB0000A0D000038B50D4604465C211348FAF73C
:109AC00019FD28B15C211148FAF714FD401C00E093
:109AD0000E480F49024600914FF48B730DA10020F0
